:020000040800F2
:10000000180A0020290200089B2400084D2100083E
:100010009924000883040008652C000800000000F3
:100020000000000000000000000000009F24000805
:1000300059050008000000009D240008A1240008C4
:10004000430200084302000843020008430200087C
:10005000430200084302000843020008430200086C
:10006000430200084302000843020008430200085C
:1000700085040008430200089104000843020008B8
:100080009D040008A9040008430200084302000878
:10009000430200084302000843020008430200082C
:1000A000430200084302000843020008430200081C
:1000B000492500085525000861250008430200086D
:1000C00043020008430200084302000843020008FC
:1000D00043020008430200084D2C0008592C000878
:1000E00043020008430200084302000843020008DC
:1000F00043020008430200084302000843020008CC
:1001000043020008430200084302000843020008BB
:1001100043020008430200084302000843020008AB
:10012000430200084302000843020008430200089B
:10013000430200084302000843020008430200088B
:10014000430200084302000843020008430200087B
:10015000430200084302000843020008430200086B
:10016000430200084302000843020008430200085B
:100170004302000843020008430200080000000098
:10018000430200084302000800F002F800F03CF8C7
:100190000AA090E8000C82448344AAF10107DA45E2
:1001A00001D100F031F8AFF2090EBAE80F0013F0F8
:1001B000010F18BFFB1A43F001031847882E0000F7
:1001C000A82E0000103A24BF78C878C1FAD8520788
:1001D00024BF30C830C144BF04680C6070470000C1
:1001E0000023002400250026103A28BF78C1FBD840
:1001F000520728BF30C148BF0B6070471FB502F0DF
:100200000BFF1FBD10B510BD00F001F91146FFF73F
:10021000F5FF02F021FE00F01FF903B4FFF7F2FF33
:1002200003BC00F027F9000009488047094800474F
:10023000FEE7FEE7FEE7FEE7FEE7FEE7FEE7FEE796
:10024000FEE7FEE704480549054A064B70470000F3
:10025000392500088901000818040020180A002028
:10026000180600201806002053EA020C00F06980EE
:100270002DE9F04B4FF00006002B1FBFB3FA83F5BA
:1002800003FA05F424FA05F65E4012BF1643B2FAEB
:1002900082F502FA05F4C5F120051EBF22FA05FC1D
:1002A00044EA0C04203556EA044C4FEA144418BFC3
:1002B000641C4FF000084FF00009904271EB030CF2
:1002C00039D3002919BFB1FA81F701FA07F6B0FA5C
:1002D00080F700FA07F6C7F120071EBF20FA07FCD7
:1002E00046EA0C062037B6FBF4FCA7EB0507103FE7
:1002F00007F01F0BCBF120060CFA0BFB2CFA06F6CD
:1003000044BFB3460026202FA4BF5E464FF0000B2B
:100310005BEA060C08BF4FF0010B19EB0B09ABFBB6
:10032000027C48EB0608C01B06FB02CC0BFB03CC8F
:1003300071EB0C01C1E70B46024641464846BDE859
:10034000F08B13B54FF000004FF00001AFF30080C9
:10035000BDE81C40704710B5203AC0F00B80B1E8F2
:100360001850203AA0E81850B1E81850A0E81850EA
:10037000BFF4F5AF5FEA027C24BFB1E81850A0E8F3
:10038000185044BF18C918C0BDE810405FEA827C0D
:1003900024BF51F8043B40F8043B08BF7047D20724
:1003A00028BF31F8023B48BF11F8012B28BF20F8C5
:1003B000023B48BF00F8012B70474FF0000200B528
:1003C000134694469646203922BFA0E80C50A0E878
:1003D0000C50B1F12001BFF4F7AF090728BFA0E826
:1003E0000C5048BF0CC05DF804EB890028BF40F8F2
:1003F000042B08BF704748BF20F8022B11F0804F34
:1004000018BF00F8012B704770477047704775465A
:1004100000F02CF8AE4605006946534620F0070070
:10042000854618B020B5FFF70DFFBDE820404FF01E
:1004300000064FF000074FF000084FF0000B21F0CE
:100440000701AC46ACE8C009ACE8C009ACE8C0099B
:10045000ACE8C0098D46704710B50446AFF3008084
:100460002046BDE81040FFF7D8BE000000487047A6
:10047000B403002001491820ABBEFEE726000200AD
:100480007047FEE7014800F0C5B80000F402002004
:10049000014800F0BFB8000054030020014800F0FC
:1004A000B9B8000034020020014800F0B3B80000E1
:1004B0009402002001681823CAB2103AB2FBF3F28A
:1004C000054B6FF30901032A9B5CC36500D9091D25
:1004D00081650846704700002230000810B50146CB
:1004E00000208B698A6A4FF0C07453B1B3F5005F86
:1004F00015D072B1012A0CD0022A0AD0032A09D1E0
:1005000004E01AB1012A06D0022A03D1C96AC9013E
:1005100000D5012010BDC96AA142FAD010BD002A41
:10052000F7D0012AF2D0022AF3D0032AF3D010BD6B
:1005300030B50468256825F480252560046863606B
:100540008368402B036803D099600068C26030BDA7
:100550009A600068C16030BD704772B6FEE72DE951
:10056000F0410446876D00F0C5FA064694F8350060
:100570000025022806D08020606584F834500120D0
:10058000BDE8F0812068016821F016010160206853
:10059000416921F080014161206C08B9A06C20B153
:1005A0002068016821F0080101602068016821F0DD
:1005B000010101600CE000F09DFA801B052807D9BD
:1005C00020206065032084F8350084F83450D7E794
:1005D00020680068C007EED194F85C103F20884086
:1005E000B860012084F8350084F834500020C7E753
:1005F00090F83510022903D0802141650120704711
:10060000052180F835100068016821F001010160C2
:10061000002070472DE9F84304464FF00009CDF85B
:10062000009063484FF41651A56D0068B0FBF1F7D8
:100630002E6894F85C10082000FA01F131420FD0C6
:1006400021680A6852070BD50A6822F004020A6082
:1006500094F85C108840A860606D40F0010060650F
:1006600094F85C104FF0010808FA01F0304208D00D
:1006700021684969090604D5A860606D40F0020050
:10068000606594F85C1004208840304208D02168EE
:100690000968890704D5A860606D40F004006065B2
:1006A00094F85C1010208840304218D02168096806
:1006B000090714D5A86020680168490304D50068BB
:1006C000000308D5A16C07E00168C90503D40168DF
:1006D00021F008010160216C09B12046884794F897
:1006E0005C1020208840304231D021680968C9065A
:1006F0002DD5A86094F8350005282068016806D03B
:10070000490347D5006800031DD4616C1CE021F04B
:10071000160101602068416921F080014161206C6F
:1007200008B9A06C20B12068016821F008010160BF
:1007300094F85C103F208840A86084F8358084F8E5
:100740003490216D1FE0E16B09B120468847606D50
:1007500000282BD0606DC00714D0052084F8350028
:100760002068016821F0010101600098401C0090A0
:10077000B84203D820680068C007F6D184F83580F5
:1007800084F83490E16C002910D001B02046BDE817
:10079000F04308470168C905D5D4016821F010016C
:1007A000016084F8358084F83490CCE7BDE8F883A4
:1007B0004C0000202DE9F041044600F09BF906466C
:1007C0005CB1022084F83500002584F8345020689C
:1007D000016821F0010101600DE00120BDE8F08118
:1007E00000F088F9801B052805D9202060650320CA
:1007F00084F83500F2E720680068C007F0D122686D
:10080000116820480140D4E901031843D4E90336B4
:100810003343184363691843A3691843E3691843D2
:10082000236A18430843616A042903D1D4E90B13EE
:1008300019430843106020684069666A20F0070188
:1008400030460E43012704280CD1A06A0643E06A13
:1008500040B12046FFF742FE20B14020606584F899
:100860003570BAE7206846612046FFF723FE94F80A
:100870005C203F2191408160656584F835700020DF
:10088000ACE700003F8010F02DE9F0410446866D92
:1008900090F83400002501280DD0012084F83400A0
:1008A00094F835700020012F07D084F83400022519
:1008B0002846BDE8F0810220FBE7022784F8357066
:1008C00060652046FFF734FE94F85C103F208840B6
:1008D000B0602068016841F016010160206C20B111
:1008E0002068016841F0080101602068016841F05A
:1008F00001010160DCE700002DE9F84FDFF8BCA141
:100900000022012503264FF00F090AF1040BAAF17A
:10091000040E00BF0B6805FA02F42340A34270D115
:100920000F7907F00307012F01D0022F16D1876836
:100930004FEA420806FA08FC27EA0C07D1F80CC077
:100940000CFA08FC4CEA070CC0F808C04768A7433B
:100950000C79C4F3001494403C4344600C79E443A4
:10096000A4070AD0C4684FEA420C06FA0CF7BC434D
:100970008F6807FA0CF72743C7600C7904F003046B
:10098000022C12D1D40800EB840CDCF8204057076D
:10099000FF0E09FA07F824EA0804D1F8108008FAD3
:1009A00007F848EA0408CCF8208004684FEA420CB3
:1009B00006FA0CF7BC430F7907F0030707FA0CF7A8
:1009C000274307604C6814F4403F70D03C4C2768C4
:1009D00047F480472760246822F0030704F480442A
:1009E0000094384C07EB040CDCF8084897074FEAF2
:1009F000177809FA08F7BC43334FB84202D10027F1
:100A000024E054E0314FB84201D101271EE0304FBD
:100A1000B84201D1022719E02E4FB84201D1032775
:100A200014E02D4FB84201D104270FE02B4FB842FC
:100A300001D105270AE02A4FB84201D1062705E077
:100A4000284FB84201D1072700E0082707FA08F726
:100A50002743CCF80878DAF800405746D1F804C0AC
:100A60009C435FEACC2C00D51C433C60DBF8004083
:100A70005F46D1F804C09C435FEA8C2C00D51C4330
:100A80003C60DEF800407746D1F804C09C435FEA42
:100A90008C3C00D51C433C60084F083F3C68D1F8B3
:100AA00004C09C435FEACC3C00D51C433C60521C14
:100AB000102AFFF42FAFBDE8F88F0000083C01407A
:100AC000443802400030014000000240000402406F
:100AD00000080240000C02400010024000140240D6
:100AE00000180240001C02400AB1816170470904ED
:100AF000FBE70000014880687047000040000020CC
:100B000002488168027811448160704740000020EB
:100B10000B4810B5016841F400710160016841F4AF
:100B200080610160016841F480710160032000F080
:100B30006FF80F2000F006F800F024F8002010BD38
:100B4000003C024070B50D4D04464FF47A71287890
:100B5000B1FBF0F00A490968B1FBF0F000F00AFBC4
:100B600048B9102C07D200222146501E00F030F860
:100B700000206C6070BD012070BD000040000020AE
:100B80004C0000200A4808B5016841F4804101602A
:100B9000006800F4804000900548001F016841F0A3
:100BA00080510160006800F08050009008BD000096
:100BB00044380240002809DB00F01F020121914067
:100BC0004009800000F1E020C0F8001170470000EB
:100BD000F0B40E4B1B680C46C3F30223C3F10705A8
:100BE000042D00D90425191D072901D2002300E096
:100BF000DB1E012606FA05F1491E214099409E4060
:100C0000761E16403143F0BC02F02DB80CED00E02A
:100C1000064900F0070208684FF6FF03184040EA53
:100C20000220034A10430860704700000CED00E00A
:100C30000000FA052DE9F0470E46050065D0DFF803
:100C40001481D8F80000F7B200F00700B04207D2D4
:100C500088F80070D8F8000000F00700B04254D1C6
:100C600028683D4C810712D5400703D5206840F421
:100C7000E05020602878000703D5206840F46040E9
:100C800020602068A96820F0F000084320602878E0
:100C9000C0072DD0304968680839012812D00228D1
:100CA00013D0032811D00968890700292DDA21689B
:100CB00021F0030101432160FFF71CFF814641F24F
:100CC000883A0EE009688903EFE709688901ECE7D3
:100CD000FFF710FFA0EB0901514502D90320BDE841
:100CE000F0872068696800F00C00B0EB810FEFD14D
:100CF000D8F80010404601F00701B14207D907704B
:100D0000006800F00700B04201D00120E7E7287832
:100D1000400705D52068E96820F4E05008432060CA
:100D20002878000706D52068296920F4604040EA49
:100D3000C100206000F038F82168084AC1F30311AF
:100D4000515CC8400649086006480068FFF7FAFE93
:100D50000020C4E7003C0240083802402A30000866
:100D60004C00002044000020044805490068096840
:100D7000044AC1F38221515CC84070474C000020F6
:100D8000083802403A3000080448054900680968FC
:100D9000044AC1F34231515CC84070474C00002006
:100DA000083802403A300008154810B5006810F0C5
:100DB0000C02144813D04110042A0FD0082A0ED177
:100DC0000F4C241F2268236802F03F025B0207D504
:100DD0002068C0F38810A0FB010106E0084610BDA2
:100DE0002168C1F38811A1FB00010023FFF73CFA41
:100DF0002168C1F30141491C4900B0FBF1F010BD6D
:100E0000083802400024F4002DE9F84F04006ED0A9
:100E10002078DFF84C93C007A9F104054AD009F106
:100E200004000168C1F38101012908D00068C0F302
:100E3000810002280AD1D9F80000400206D52868AE
:100E4000800337D560680028E1D033E06068B0F5F2
:100E5000803F10D0B0F5A02F286810D020F480304B
:100E60002860286820F4802028606068A8B1FFF717
:100E700041FE06460DE0286840F48030F4E740F477
:100E800080202860F7E700BFFFF734FE801B64284E
:100E900073D828688003F7D50CE0FFF72BFE0646D1
:100EA00005E000BFFFF726FE801B6428F0D8286805
:100EB0008003F7D42078DFF8AC8280074FF0000A77
:100EC0003ED5A748001D016811F00C0F08D000683E
:100ED000C0F3810002280BD1D9F80000400207D4EA
:100EE0002868800716D5E068012800D112E033E1B8
:100EF000E068B8B10120C8F80000FFF7FBFD064626
:100F000005E000BFFFF7F6FD801B0228C0D8286867
:100F10008007F7D52868216920F0F80040EAC10071
:100F200028600DE0C8F800A0FFF7E4FD064604E0E5
:100F3000FFF7E0FD801B02281FD828688007F7D440
:100F40002078000722D5864F87486169703771B1D4
:100F500001210160FFF7CEFD064604E0FFF7CAFD60
:100F6000801B022809D838688007F7D50EE0C0F842
:100F700000A0FFF7BFFD064605E082E0FFF7BAFDDF
:100F8000801B02287DD838688007F7D42078400776
:100F900068D5DFF8CCB100270BF13C0BDBF8000083
:100FA000C0000BD4DBF8001041F08051CBF80010EA
:100FB000DBF80000012700F0805000906B4E306895
:100FC000C00510D4306840F480703060FFF792FDA7
:100FD000009005E0FFF78EFD0099401A022850D8D6
:100FE0003068C005F6D55E4EA0686C3601280FD07B
:100FF0000528306810D020F001003060306820F003
:1010000004003060A068B8B1FFF774FD00900FE0F5
:10101000306840F00100F4E740F004003060F7E78A
:10102000FFF768FD0099411A41F28830814266D885
:1010300030688007F4D50EE0FFF75CFD009007E014
:10104000FFF758FD0099411A41F28830814256D885
:1010500030688007F4D42FB1DBF8001021F0805104
:10106000CBF80010A069C8B33D49091D0968C1F358
:10107000810102294AD00228504607D0C8F86000F2
:1010800000E03CE0FFF736FD04463BE04746C8F889
:101090006000FFF72FFD064605E000BFFFF72AFDC1
:1010A000801B02282BD828688001F7D4D4E90701D7
:1010B0000843A16A2E4A490802EB0141626A41EAEB
:1010C0008211084394F82C1040EA0161C9F800101D
:1010D00001203866FFF70EFD044606E03EE000BF43
:1010E000FFF708FD001B022809D828688001F7D502
:1010F00034E000BFFFF7FEFC001B022802D90320EA
:10110000BDE8F88F28688001F4D427E00128F7D0E3
:10111000D9F80000E26900F4800191421CD1226AF2
:1011200000F03F01914217D147F6C071626A014059
:10113000B1EB821F10D1A26A4FF0FF3300F44031AF
:1011400003EB5202B1EB024F06D194F82C1000F0E1
:101150007060B0EB016F01D00120D1E70020CFE734
:101160000438024000004742800E474200700040B1
:101170000000FFFF10B5401EB0F1807F01D30120B9
:1011800010BD4FF0E02460610F21601701F06BFD8E
:101190000020A06107202061002010BD704770472B
:1011A00010B590F83C20012A22D0012280F83C2082
:1011B000CA688C6822F4407222434C6822F4806230
:1011C00022430C6822F4006222430C6922F480520C
:1011D00022434C6922F400522243C969002322F4BD
:1011E00080420A4301684A6480F83C30002010BD08
:1011F000022010BD70B590F83C20012A32D00124A5
:1012000080F83C40022280F83D2003685A689D68BF
:1012100022F070060A6832435A60134B02689A4201
:1012200014D0B2F1804F11D0104B9A420ED0104B17
:101230009A420BD00F4B9A4208D00F4B9A4205D0DE
:101240000E4B9A4202D00E4B9A4204D1496825F0C7
:1012500080031943916080F83D40002180F83C10E4
:10126000084670BD022070BD00000140000400402F
:1012700000080040000C0040000401400040014014
:101280000018004010B5040003D094F83D0010B1E0
:1012900007E0012010BD002084F83C00204600F04B
:1012A0001FF8022084F83D00211D206801F05EF93E
:1012B000012084F8460084F83E0084F83F0084F85A
:1012C000400084F8410084F8420084F8430084F828
:1012D000440084F8450084F83D00002010BD000063
:1012E00008B501681A48814209D11A48016841F0DD
:1012F00001010160006800F00100009008BD154880
:10130000154A001F91420ED1016841F002010160AF
:101310000068002200F00200009011461D20FFF737
:1013200057FC1D2010E00D4A9142E7D1016841F0C1
:10133000040101600068002200F0040000901146E2
:101340001E20FFF745FC1E20BDE80840FFF732BC19
:101350000000014044380240000400400008004002
:1013600090F83D10012901D001207047022180F83A
:101370003D100168CA6842F00102CA600068114964
:10138000884214D0B0F1804F11D00F4988420ED05E
:101390000E4988420BD00E49884208D00D49884238
:1013A00005D00D49884202D00C49884204D1816899
:1013B00001F00701062903D0016841F00101016035
:1013C0000020704700000140000400400008004079
:1013D000000C0040000401400040014000180040A3
:1013E00070B5044690F83C000025012817D001266E
:1013F00084F83C60022084F83D002068826822F076
:10140000770222F47F4282600868502838D00DDCD1
:1014100020284FD005DC90B3102811D14AE00220DB
:1014200070BD302846D040280AD13BE060282FD03C
:1014300070280DD0B0F5805F03D0B0F5005F12D0FA
:10144000012584F83D60002084F83C00284670BDEA
:10145000CB68D1E90121206801F0F9F820688168A2
:1014600041F0770109E0CB68D1E90121206801F062
:10147000EEF82068816841F480418160E1E719E07D
:10148000CA684968206801F0B7F95021206806E071
:10149000CA684968206801F0C0F96021206801F03D
:1014A000E0F8CEE7CA684968206801F0A5F9402154
:1014B0002068F4E7226801461046F0E72DE9F04184
:1014C0000D46040003D094F83D0018B108E0012057
:1014D000BDE8F081002084F83C00204600F040F890
:1014E000022084F83D002068816844F2070291439D
:1014F0008160211D206801F039F8226890689169A7
:10150000166A2B68AF69034340F20330814341EA16
:101510000721A868EF6908434FF6FC418843E96852
:1015200040EA0720014328692F6A000140EA07309A
:10153000084369686D6926F0AA0646EA051529433D
:1015400093602268906154F8460B0162012004F810
:101550001F09E0752076E0762077A0750020B7E7B8
:1015600010B586B0044614216846FEF726FF2068B1
:10157000B0F1804F27D115480021026842F00102E6
:101580000260006800F00100059010481038026801
:1015900042F001020260006800F0010005900320A3
:1015A00000900220CDE901010120CDE90310694638
:1015B0000748FFF7A1F9002211461C20FFF708FB9E
:1015C0001C20FFF7F7FA06B010BD000040380240BB
:1015D0000000024070B590F83E60044690F83F501D
:1015E00090F8423090F84320022021B104290ED017
:1015F000012E1BD114E0012E18D1012B16D184F835
:101600003E0084F8420001220021206820E0012DE4
:101610000CD1012A0AD184F83F0084F8430014E079
:10162000012D03D1012B01D1012A01D0012070BD70
:1016300084F83E0084F83F0084F8420084F84300B8
:1016400001220021206800F0F5FF0122042120681A
:1016500000F0F0FF2068016841F001010160002006
:1016600070BD00000D490E4A0B781268012B04D0A2
:10167000042B01D1506AC88070471268C2F300126F
:10168000CA70007F012807D112B10889401E02E00C
:1016900012B90889401C08810889ECE70000002085
:1016A0009800002030B50446002551B104290DD022
:1016B000082910D094F8410094F84520012811D150
:1016C0000EE094F83E0094F84220F7E794F83F00CB
:1016D00094F84320F2E794F8400094F84420EDE7B2
:1016E000012A01D0012030BD022059B1042912D0B5
:1016F000082919D084F8410084F845000C2944D009
:10170000012540E084F83E0084F842002068C26869
:1017100042F0020210E084F83F0084F843002068A1
:10172000C26842F0040207E084F8400084F84400F4
:101730002068C26842F00802C2600122206800F0FE
:1017400079FF14492068884214D0B0F1804F11D03D
:10175000114988420ED0114988420BD01049884265
:1017600008D01049884205D00F49884202D00F495D
:10177000884204D1816801F00701062903D001687D
:1017800041F001010160284630BD2068C26842F086
:101790001002D1E7000001400004004000080040B2
:1017A000000C0040000401400040014000180040CF
:1017B00070B50446006801694FF00005C943890708
:1017C00015D4C168C943890711D4E91E01610120FC
:1017D0002077206880698007204602D0FFF742FF0B
:1017E00004E000F0C3F8204600F055F925772068A2
:1017F0000169C943490717D4C168C943490713D4CC
:101800006FF004010161022020772068806910F4E4
:10181000407F204602D0FFF725FF04E000F0A6F845
:10182000204600F038F9257720680169C943090787
:1018300016D4C168C943090712D46FF008010161C9
:10184000042020772068C0698007204602D0FFF777
:1018500009FF04E000F08AF8204600F01CF9257723
:1018600020680169C943C90617D4C168C943C906BC
:1018700013D46FF010010161082020772068C0693F
:1018800010F4407F204602D0FFF7ECFE04E000F0A9
:101890006DF8204600F0FFF8257720680169C943FC
:1018A000C90708D1C168C943C90704D1891E0161AC
:1018B000204600F055F920680169C943090609D49A
:1018C000C168C943090605D46FF080010161204653
:1018D000FFF764FC20680169C943490609D4C1685F
:1018E000C943490605D46FF040010161204600F06C
:1018F00043F920680169C94389060BD4C168C9430B
:10190000890607D46FF0200101612046BDE87040D0
:10191000FFF745BC70BD000010B586B00446142129
:101920006846FEF74AFD0E492068884216D10D48E8
:101930000021026842F010020260006800F010000E
:1019400005904FF4007000900220CDE901010120C4
:10195000CDE9031069460448FEF7CEFF06B010BD7E
:10196000000001403038024000100240704770B55E
:10197000044690F83C0000260D4601280FD00120B7
:1019800084F83C006AB1042A1DD0082A2FD00C2A02
:101990003FD00126002084F83C00304670BD022074
:1019A00070BD206800F066FE2068816941F0080182
:1019B00081612068816921F0040181612068816969
:1019C0002A69114311E0206800F084FE20688169D3
:1019D00041F4006181612068816921F48061816145
:1019E000206881692A6941EA02218161D2E7206881
:1019F00000F0A6FE2068C16941F00801C1612068BD
:101A0000C16921F00401C1612068C1692A691143DB
:101A100011E0206800F0C8FE2068C16941F400614F
:101A2000C1612068C16921F48061C1612068C16918
:101A30002A6941EA0221C161ACE710B5040003D074
:101A400094F83D0010B107E0012010BD002084F89B
:101A50003C00204600F01EF8022084F83D00211DC5
:101A6000206800F083FD012084F8460084F83E00E1
:101A700084F83F0084F8400084F8410084F8420074
:101A800084F8430084F8440084F8450084F83D005D
:101A9000002010BD7047704710B50446022249B1BE
:101AA00004290ED0082913D094F84100012816D03B
:101AB000012010BD94F83E000128F9D184F83E20A1
:101AC0000FE094F83F000128F2D184F83F2008E0AD
:101AD00094F840000128EBD184F8402001E084F81C
:101AE00041200122206800F0A5FD16492068164A11
:101AF000884201D0904203D1436C43F400434364D5
:101B00002068884213D0B0F1804F10D00F4988422E
:101B10000DD00F4988420AD00E49884207D0904222
:101B200005D00D49884202D00C49884204D1816811
:101B300001F00701062903D0016841F001010160AD
:101B4000002010BD000001400004014000040040DE
:101B500000080040000C0040004001400018004018
:101B600000680349884202D1024901204870704749
:101B70000004004000000020704738B5044690F88B
:101B80003E00202822D181B17AB194F83C0001288E
:101B90001CD0012084F83C002063204601F00CF8A2
:101BA000002803D1216B012901D0012038BD216813
:101BB0000A684968009121680C3151E8002F42F011
:101BC000100241E80023002BF5D138BD022038BDBA
:101BD00010B50C461B4900680968884230D1194984
:101BE0002246443101F12800FEF7B5FB15486C3060
:101BF00001780A291CD14178552919D18178201FF3
:101C0000814215D10F4922466C31A1F11400FEF733
:101C1000A2FB0C49062058312144224601F8010C50
:101C200008490848583100F049FA074901208870EE
:101C300004491422BDE8104044310248FFF79DBF1B
:101C400010BD0000B401002000000020704700001B
:101C5000F8B5016804460868CA684B6910F00F0FB0
:101C60004FF0000559D003F0010602F49077374396
:101C700065D0C10705D0D10503D5216C41F0010124
:101C80002164410705D5D90703D0216C41F0020139
:101C90002164810705D5D90703D0216C41F00401E7
:101CA0002164010707D502F02001314303D0216CE4
:101CB00041F008012164216C00293AD0800604D546
:101CC000900602D5204600F090FE20684069216C05
:101CD000C0F38010090700D460B3204600F050FE26
:101CE00020684069400621D52068143050E8001F64
:101CF00021F0400140E80012002AF5D1A06BA8B104
:101D00006C490165A06BFEF773FC002811D0A06B35
:101D1000016D01B0BDE8F040084783060FD593067A
:101D20000DD52046BDE8F84000F05FBE2046FFF725
:101D30008DFFF8BD2046FFF789FF2564F8BD266BAF
:101D40002023012E79D1C60677D5D60675D5086829
:101D5000486800904869400640D5A16B0868406813
:101D60000004000CEAD0A28D8242E7D9E085C86960
:101D7000B0F5807F2DD020680C3050E8001F21F492
:101D8000807140E80012002AF5D12068143050E834
:101D9000001F21F0010140E80012002AF5D120685F
:101DA000143050E8001F21F0400140E80012002AE2
:101DB000F5D184F83E30256320680C3050E8001FD0
:101DC00021F0100140E80012002AF5D1A06BFEF7C7
:101DD000C6FBA08DE18D401A81B229E0A08DE18D76
:101DE000401A81B2E08D0028A8D00029A6D0206832
:101DF0000C3050E8002F22F4907240E80026002EAC
:101E0000F5D12068143050E8002F22F0010240E89C
:101E10000026002EF5D184F83E30256320680C3072
:101E200050E8002F22F0100240E80023002BF5D1EB
:101E30002046FFF7CDFEF8BDFFE705062BD51506BA
:101E400029D594F83D002128F5D1A068B0F5805F30
:101E500001D12069B0B1206A411C2162216800785B
:101E60004860E08C401E0004000CE084E3D1206850
:101E7000C16821F08001C1602068C16841F0400163
:101E8000C160D8E7206A0088C0F308004860206A73
:101E9000801C2062E5E74006CDD55006CBD5CA6848
:101EA000204622F04002CA6084F83D3000F04CF930
:101EB000C1E700003F28000870B5040004D094F882
:101EC0003D00002510B106E0012070BD84F83C50B3
:101ED000204600F023F8242084F83D002068C168E3
:101EE00021F40051C160204600F0E0FD2068016946
:101EF00021F4904101612068416921F02A0141618A
:101F00002068C16841F40051C1602564202084F834
:101F10003D0084F83E00002070BD00002DE9F04730
:101F200086B0044614216846FEF747FA59485949D5
:101F3000DFF85C81D4F800C01039022203230727A0
:101F4000002546054FF0400A4FF48069C4454AD148
:101F5000D0F800C04CF4003CC0F800C0006800F4A9
:101F600000300590086840F0010008600868694684
:101F700000F0010005900C208DE82500CDE9033725
:101F80004548FEF7B9FC464F4448C8463860C7E9A3
:101F90000165C7E903597D61BD61FD613D62384658
:101FA0007D62FEF707FC08B1FEF7D7FAA763BC63B2
:101FB0003C4F3A48C7E903587D61BD61FD613D6210
:101FC00018307D6287E841043846FEF7F3FB08B11C
:101FD000FEF7C3FA6763002211462620BC63FEF7B2
:101FE000F7FD26204FE0DFF8C080C4454DD1D0F882
:101FF00000C04CF4802CC0F800C0006800F48020C1
:102000000590086840F0020008600868694600F022
:10201000020005904FF440608DE82500CDE90337BC
:102020002248FEF769FC1D48214F6038C8463860D9
:10203000C7E90165C7E903597D61BD61FD613D6285
:1020400038467D62FEF7B6FB08B1FEF786FAA76355
:10205000BC63184F1148C7E903587D61BD61FD613C
:102060003D6230387D6287E841043846FEF7A2FBC6
:1020700008B1FEF772FA6763002211462720BC639D
:10208000FEF7A6FD2720FEF795FD06B0BDE8F08718
:102090000044004040380240000002408860024096
:1020A0003402002094020020004800400004024056
:1020B000F4020020540300207047704770B50446B6
:1020C00090F83D00202836D191B38AB394F83C00B3
:1020D000012830D0012084F83C002162A284E284EF
:1020E00000252564212084F83D00636B1348D863E4
:1020F000636B13481864636B1248D864606B1346B3
:1021000005652668606B321DFEF7BEFB21686FF027
:102110004000086084F83C502068143050E8001FEC
:1021200041F0800140E80012002AF5D1002070BD86
:10213000FFE70120FBE70220F9E70000352900084E
:10214000772900084F28000870477047FEE7000015
:10215000154808B5016841F40011016000680022CB
:1021600000F40010009011460C20FEF731FD0C2009
:10217000FEF720FD002211460E20FEF729FD0E205D
:10218000FEF718FD002211461020FEF721FD102059
:10219000FEF710FD002211461120FEF719FDBDE8E3
:1021A00008401120FEF706BD303802402DE9F0410D
:1021B00086B014216846FEF700F932480024016811
:1021C00041F080010160016801F080010591016822
:1021D00041F001010160016801F001010591016810
:1021E00041F004010160016801F0040105910168FA
:1021F00041F002010160016801F0020105910168EE
:1022000041F010010160016801F0100105910168C1
:1022100041F00801016000681B4E00F008000590C5
:10222000002220213046FEF75FFC184F00220221D9
:102230003846FEF759FCDFF8588000220621404658
:10224000FEF752FC202000900125CDE9015469469B
:1022500030460394FEF750FB02200090CDE9015474
:10226000694638460394FEF747FB06200090CDE907
:102270000154694640460394FEF73EFB06B0BDE8B4
:10228000F0810000303802400008024000040240A3
:10229000000C024010B596B000240F9410941194D5
:1022A000129413941C2108A81494FEF786F8202198
:1022B0006846FEF782F82848264901602921C0E9CE
:1022C0000114C721C0E9031444618461FEF7DAFFF9
:1022D00008B172B6FEE74FF480500F900FA91E4868
:1022E000FFF77EF808B172B6FEE71B48FFF7A5FBC3
:1022F00008B172B6FEE7139413A917481494FEF7B9
:1023000079FF08B172B6FEE76020CDE908040A94AF
:102310000B940C940D94002208A90F480E94FFF71B
:1023200026FB08B172B6FEE700944FF40050CDE9E9
:102330000440029401940394694607480794FEF709
:102340002FFF08B172B6FEE70348FFF7E5FA16B0B3
:1023500010BD0000000001405000002010B58CB0FE
:1023600024216846FEF729F80024164809944FF006
:1023700080410A94C0E900144FF6FF71C0E90241A0
:10238000046184610320CDE900040120CDE9020449
:102390000A210491CDE90540CDE907416946094884
:1023A000FFF78CF808B172B6FEE7099409A9054851
:1023B0000A94FEF71FFF002801D072B6FEE70CB0AA
:1023C00010BD00009800002010B586B0002417480A
:1023D00000940194029403940494134905940160B9
:1023E0005321C0E9011440F2E731C0E903148461CC
:1023F000FEF748FF08B172B6FEE74FF48050009038
:1024000069460A48FEF7ECFF08B172B6FEE704948D
:1024100004A906480594FEF7EDFE002801D072B627
:10242000FEE706B010BD000000040040E000002000
:1024300010B586B0002417480094019402940394C8
:10244000049413490594016042F2CF01C0E90114DC
:1024500040F2E731C0E903148461FEF713FF08B1CD
:1024600072B6FEE74FF48050009069460948FEF7C7
:10247000B7FF08B172B6FEE7049404A905480594B5
:10248000FEF7B8FE002801D072B6FEE706B010BD18
:102490000008004028010020FEE7FEE77047704773
:1024A000FEF72EBB30B593B030216846FDF785FFAF
:1024B00014210CA8FDF781FF1D480025016841F09B
:1024C00080510160006800F0805011901948016847
:1024D00041F4804101600068022400F480401190C2
:1024E00001200090000401908001CDE9064008AA77
:1024F0000420A82182E813000B906846FEF784FCB4
:1025000008B172B6FEE70CA90F2081E831004FF444
:10251000A0500F904FF48050109005210CA8FEF7AA
:1025200089FB002801D072B6FEE713B030BD000071
:1025300040380240007000400248016841F47001D8
:102540000160704788ED00E00148FFF731B90000F5
:10255000980000200148FFF72BB90000E0000020A0
:102560000148FFF725B9000028010020F0B50268F6
:10257000254C264D264E274F274B4FF0804CA0422E
:1025800009D0604507D0A84205D0B04203D0B84278
:1025900001D0984204D122F0700E4A6842EA0E023D
:1025A000A0421BD0604519D0A84217D0B04215D028
:1025B000B84213D0984211D0184DA8420ED0184DF1
:1025C000A8420BD0174DA84208D0174DA84205D0FD
:1025D000164DA84202D0164DA84203D122F44075F0
:1025E000CA682A434D6922F080022A4302608A6841
:1025F000C2620A688262A04201D0984201D1096990
:10260000016301214161F0BD000001400004004070
:1026100000080040000C0040000401400040014060
:10262000004401400048014000180040001C0040E8
:102630000020004010B501F01F030121046A9940F9
:102640008C430462016A9A401143016210BD10B5C7
:10265000846842EA032224F47F440A4322438260CE
:1026600010BD826822F070020A4342F007018160C7
:1026700070470000F0B5026A22F001020262036AAC
:1026800042688469124E24F073050C682C4323F0D1
:1026900002058B682B430D4DA84201D0B04205D1F5
:1026A00023F00807CB683B4323F00403A84201D082
:1026B000B04205D14D6922F4407215438A692A431C
:1026C00042608461496841630362F0BD00000140DB
:1026D00000040140F0B5026A22F010020262026AB0
:1026E000436884690D6824F4E64444EA05248D684F
:1026F00022F0200242EA05120F4D104EA84201D0EE
:10270000B04206D1CF6822F0800242EA071222F0DE
:102710004002A84201D0B04207D14D6923F4406382
:1027200043EA85038D6943EA850343608461496810
:1027300081630262F0BD000000000140000401401E
:10274000F0B5026A22F480720262026A4368C469C8
:1027500022F4007224F073050C68124E2C438D682D
:1027600042EA05220E4DA84201D0B04206D1CF6800
:1027700022F4006242EA072222F48062A84201D0D9
:10278000B04207D14D6923F4405343EA05138D69E4
:1027900043EA05134360C4614968C1630262F0BD46
:1027A000000001400004014030B5026A22F480526A
:1027B0000262046A4268C3690D6823F4E64343EA8F
:1027C00005238D6824F4005444EA0534084DA842DA
:1027D00002D0084DA84204D14D6922F4804242EA59
:1027E00085124260C36149680164046230BD000023
:1027F000000001400004014010B5036A046A24F09F
:1028000001040462846924F0F00444EA021423F011
:102810000A020A438461026210BD10B5036A23F004
:10282000100303628369046A23F4704343EA0232AB
:1028300024F0A00343EA01118261016210BD10B5CA
:10284000806B0021C185C184FFF700FA10BD70B50F
:10285000846B2068406994F83D10C0F3C0100025D7
:10286000212904D118B1E584204600F0B0F8206891
:10287000406994F83E10C0F38010222904D118B1A9
:10288000E585204600F07CF8206C40F010002064C4
:102890002046FFF7DBF970BD10B50146806B096873
:1028A0000968C9052FD40021C18501680C3151E8A0
:1028B000002F22F4807241E80023002BF5D101683B
:1028C000143151E8002F22F0010241E80023002BCF
:1028D000F5D10168143151E8002F22F0400241E89F
:1028E0000023002BF5D1202180F83E10016B012937
:1028F00009D101680C3151E8002F22F0100241E8A3
:102900000023002BF5D1016B012902D0FFF7D4FB86
:1029100010BD818DFFF75CF910BD10B5806B016BA8
:10292000012902D0FFF7C9FB10BD818D4908FFF7CF
:102930004FF910BD10B50146806B09680968C905DB
:1029400016D40021C1840168143151E8002F22F00F
:10295000800241E80023002BF5D101680C3151E8D9
:10296000002F42F0400241E80023002BF5D110BDBA
:10297000FFF7EAFB10BD10B5806BFFF7E6FB10BD5B
:1029800001680C3151E8002F22F4907241E80023D5
:10299000002BF5D10168143151E8002F22F001021B
:1029A00041E80023002BF5D1016B012909D1016811
:1029B0000C3151E8002F22F0100241E80023002BD7
:1029C000F5D1202180F83E10002101637047016895
:1029D0000C3151E8002F22F0C00241E80023002B07
:1029E000F5D1202180F83D10704708B590F83E10D1
:1029F000222901D0022008BD82684FF480539A42F8
:102A000001D1016921B1816A9A421BD04AB10AE021
:102A10000268816A5268C2F308020A80816A891CCE
:102A200008E0026972B10268526802F07F020A701F
:102A3000816A491C8162C18D491E0904090CC18546
:102A400003D019E002685268F1E70168CA6822F011
:102A50002002CA600168CA6822F48072CA600168F4
:102A60004A6922F001024A61202180F83E10016B80
:102A7000012903D0FFF720FB002008BD00210163DE
:102A800001680C3151E8002F22F0100241E80023C8
:102A9000002BF5D101680A68D20602D50A68496898
:102AA0000091818DFFF794F8E6E7000070B50446C9
:102AB00000680169E26821F4405111430161216914
:102AC000A068E26908436169114308432168CA6844
:102AD00049F20C639A430243CA6020684169A269C3
:102AE00021F440711143416131492068884202D08C
:102AF0003049884202D1FEF747F901E0FEF734F988
:102B0000E2690023192164253226B2F5004F62687C
:102B100028D0A0FB0101930F9200FDF7A5FB014611
:102B2000B0FBF5F06FF01802504301EB800006EBAC
:102B30000010B0FBF5F000F0F002B1FBF5F002EB95
:102B40000012B1FBF5F06FF01803584301EB800061
:102B500006EB0010B0FBF5F000F00F002168104408
:102B6000886070BDA0FB010192185B41FDF77CFB02
:102B70000146B0FBF5F00201B1FBF5F06FF0180370
:102B8000584301EB800006EBC000B0FBF5F000F00D
:102B9000F80002EB4002B1FBF5F0584301EB800076
:102BA00006EBC000B0FBF5F000F00700D6E7000030
:102BB000001001400014014038B581628285002573
:102BC000134604460564222084F83E00A26B1C488C
:102BD000D063A26B1B481064A26B1B48D064A06B2F
:102BE0000A4605652168A06B091DFDF74DFE2068AA
:102BF00001684068009084F83C50206948B1206822
:102C00000C3050E8001F41F4807140E80012002AA7
:102C1000F5D12068143050E8001F41F0010140E870
:102C20000012002AF5D12068143050E8001F41F04E
:102C3000400140E80012002AF5D1002038BD000014
:102C4000992800081B2900084F2800080148FEF7B2
:102C5000FFBF0000700100200148FEF7F9BF00002F
:102C6000B4010020FEE70907090E002804DB00F18B
:102C7000E02080F80014704700F00F0000F1E02021
:102C800080F8141D704700002248C1884FF4B472C8
:102C900011FB02F20178204B01EB8111890092FBBC
:102CA000F1F200EE102AB8EEC00A10EE102A80ED04
:102CB000030A9A4213DDB0F9062092FBF1F301FBFF
:102CC0001322C280C2884FF4B47312FB03F292FB4A
:102CD000F1F200EE102AB8EEC00A80ED030A10EE01
:102CE000102A0E4B9A4213D9B0F9062092FBF1F349
:102CF00001FB1322C280C2884FF4B47312FB03F2AB
:102D000092FBF1F100EE101AB8EEC00A80ED030A52
:102D100070470000000000200080B4430080B4C36E
:102D2000174890ED040AD0ED030A30EE600A80EDFA
:102D3000080AD0ED050A20EE801A80ED0C1AD0EDBD
:102D4000060AD0ED0B1A20EE802AD0ED0D0A42EED5
:102D5000210AC0ED0D0A90ED092AD0ED072A30EEC8
:102D6000422A62EE222A82EEA12A80ED0E2A31EE5C
:102D7000021A71EE200AC0ED0A0A80ED090A7047B6
:102D80000000002070B52A4C002594ED0A0AB5EE2B
:102D9000C00AF1EE10FA01D2FF2005E0B5EEC00A3C
:102DA000F1EE10FA02DD0120207100E02571B0EE95
:102DB000C00ABCEEC00A10EE100A80B26081C728BB
:102DC00001D9C72009E00C2808D294ED080AB5EE15
:102DD000C00AF1EE10FA01D00C20608194F90400D1
:102DE000144B154E411C11D0012816D0002202218F
:102DF0001846FDF779FE002220213046FDF774FECB
:102E000065810E4960890968486370BD002202210E
:102E10001846FDF769FE012205E00122022118464D
:102E2000FDF762FE002220213046FDF75DFEE8E757
:102E30000000002000040240000802405000002072
:102E400001B500212DED020B6A46535C4354491C29
:102E50000429FADB0EBD0000FDF75AFEFFF722FB46
:102E6000FFF7A4F9FFF774F9FFF714FAFFF776FA02
:102E7000514850494FF4E13600240160C0E9016433
:102E80000C25C460C0E904458461C461FFF714F8EF
:102E900008B172B6FEE7FFF797FAFFF7C9FA46489E
:102EA000464944300160C0E90164C460C0E904459A
:102EB0008461C461FFF700F808B172B6FEE7002133
:102EC0003F48FEF7E9FD3E4800214830FEF7EAFBA7
:102ED0003B4804214830FEF7E5FB394800214830E3
:102EE000FEF778FB364804214830FEF773FB324882
:102EF0009038FEF735FA30484838FEF731FA2E4957
:102F000014228831A1F14400FEF737FE2A4F2D4EDE
:102F1000B03706F13C05707840B17470FFF7B4FE2D
:102F2000FFF7FEFEFFF72EFF00F04EF8B078002806
:102F3000F1D0B470F87801282ED0022829D00328C7
:102F4000E9D10020391809792954401CC0B204285D
:102F5000F8D3286800EE100A002086ED050A39181B
:102F6000097A2954401CC0B20428F8D3286800EE1E
:102F7000100A002086ED070A3918097B2954401CE5
:102F8000C0B20428F8D3286800EE100A86ED060ABD
:102F9000C1E738793070BEE7002039180979295423
:102FA000401CC0B20428F8D3286800EE100A86ED51
:102FB000040AB0E7004400407001002000480040CF
:102FC000500000200000002010B5114C0A20207095
:102FD000552060700520A0700420E0700D48A0F11D
:102FE0003C0191ED030AFFF72BFF0A49002023184B
:102FF0000A5C401CC0B21A710428F8D30620207263
:103000000349BDE810400922A1F15800FFF756B866
:103010000C0200203C0000204FF04070E1EE100A4E
:103020007047000610160006101600000000000091
:103030000000010203040607080900000000010265
:10304000030400006430000800000020500000006D
:10305000C4010008B430000850000020C809000076
:10306000E001000804000000000000000000000073
:1030700000000000000000000000003F52499D39A0
:10308000CDCCCC3D0000000000000000000000009E
:103090006F12833A000000000000000000000000F2
:1030A000000000000100000010000000000000000F
:0430B0000024F40004
:040000050800018965
:00000001FF
